{
  "_format": "hh-sol-artifact-1",
  "contractName": "NFTMarket",
  "sourceName": "contracts/NFTMarket.sol",
  "abi": [
    {
      "inputs": [
        {
          "internalType": "address",
          "name": "initialOwner",
          "type": "address"
        }
      ],
      "stateMutability": "nonpayable",
      "type": "constructor"
    },
    {
      "inputs": [
        {
          "internalType": "address",
          "name": "sender",
          "type": "address"
        },
        {
          "internalType": "uint256",
          "name": "tokenId",
          "type": "uint256"
        },
        {
          "internalType": "address",
          "name": "owner",
          "type": "address"
        }
      ],
      "name": "ERC721IncorrectOwner",
      "type": "error"
    },
    {
      "inputs": [
        {
          "internalType": "address",
          "name": "operator",
          "type": "address"
        },
        {
          "internalType": "uint256",
          "name": "tokenId",
          "type": "uint256"
        }
      ],
      "name": "ERC721InsufficientApproval",
      "type": "error"
    },
    {
      "inputs": [
        {
          "internalType": "address",
          "name": "approver",
          "type": "address"
        }
      ],
      "name": "ERC721InvalidApprover",
      "type": "error"
    },
    {
      "inputs": [
        {
          "internalType": "address",
          "name": "operator",
          "type": "address"
        }
      ],
      "name": "ERC721InvalidOperator",
      "type": "error"
    },
    {
      "inputs": [
        {
          "internalType": "address",
          "name": "owner",
          "type": "address"
        }
      ],
      "name": "ERC721InvalidOwner",
      "type": "error"
    },
    {
      "inputs": [
        {
          "internalType": "address",
          "name": "receiver",
          "type": "address"
        }
      ],
      "name": "ERC721InvalidReceiver",
      "type": "error"
    },
    {
      "inputs": [
        {
          "internalType": "address",
          "name": "sender",
          "type": "address"
        }
      ],
      "name": "ERC721InvalidSender",
      "type": "error"
    },
    {
      "inputs": [
        {
          "internalType": "uint256",
          "name": "tokenId",
          "type": "uint256"
        }
      ],
      "name": "ERC721NonexistentToken",
      "type": "error"
    },
    {
      "inputs": [],
      "name": "NFTMarket__CanNotWithdrawWithZeroBalance",
      "type": "error"
    },
    {
      "inputs": [],
      "name": "NFTMarket__IncorrectPrice",
      "type": "error"
    },
    {
      "inputs": [],
      "name": "NFTMarket__PriceMustBeGreaterThanZero",
      "type": "error"
    },
    {
      "inputs": [],
      "name": "NFTMarket__ThisNFTIsNotListedForSale",
      "type": "error"
    },
    {
      "inputs": [],
      "name": "NFTMarket__YouAreNotTheSeller",
      "type": "error"
    },
    {
      "inputs": [
        {
          "internalType": "address",
          "name": "owner",
          "type": "address"
        }
      ],
      "name": "OwnableInvalidOwner",
      "type": "error"
    },
    {
      "inputs": [
        {
          "internalType": "address",
          "name": "account",
          "type": "address"
        }
      ],
      "name": "OwnableUnauthorizedAccount",
      "type": "error"
    },
    {
      "anonymous": false,
      "inputs": [
        {
          "indexed": true,
          "internalType": "address",
          "name": "owner",
          "type": "address"
        },
        {
          "indexed": true,
          "internalType": "address",
          "name": "approved",
          "type": "address"
        },
        {
          "indexed": true,
          "internalType": "uint256",
          "name": "tokenId",
          "type": "uint256"
        }
      ],
      "name": "Approval",
      "type": "event"
    },
    {
      "anonymous": false,
      "inputs": [
        {
          "indexed": true,
          "internalType": "address",
          "name": "owner",
          "type": "address"
        },
        {
          "indexed": true,
          "internalType": "address",
          "name": "operator",
          "type": "address"
        },
        {
          "indexed": false,
          "internalType": "bool",
          "name": "approved",
          "type": "bool"
        }
      ],
      "name": "ApprovalForAll",
      "type": "event"
    },
    {
      "anonymous": false,
      "inputs": [
        {
          "indexed": false,
          "internalType": "uint256",
          "name": "_fromTokenId",
          "type": "uint256"
        },
        {
          "indexed": false,
          "internalType": "uint256",
          "name": "_toTokenId",
          "type": "uint256"
        }
      ],
      "name": "BatchMetadataUpdate",
      "type": "event"
    },
    {
      "anonymous": false,
      "inputs": [
        {
          "indexed": false,
          "internalType": "uint256",
          "name": "_tokenId",
          "type": "uint256"
        }
      ],
      "name": "MetadataUpdate",
      "type": "event"
    },
    {
      "anonymous": false,
      "inputs": [
        {
          "indexed": false,
          "internalType": "uint256",
          "name": "tokenID",
          "type": "uint256"
        },
        {
          "indexed": false,
          "internalType": "address",
          "name": "from",
          "type": "address"
        },
        {
          "indexed": false,
          "internalType": "address",
          "name": "to",
          "type": "address"
        },
        {
          "indexed": false,
          "internalType": "string",
          "name": "tokenURI",
          "type": "string"
        },
        {
          "indexed": false,
          "internalType": "uint256",
          "name": "price",
          "type": "uint256"
        }
      ],
      "name": "NFTTransfer",
      "type": "event"
    },
    {
      "anonymous": false,
      "inputs": [
        {
          "indexed": true,
          "internalType": "address",
          "name": "previousOwner",
          "type": "address"
        },
        {
          "indexed": true,
          "internalType": "address",
          "name": "newOwner",
          "type": "address"
        }
      ],
      "name": "OwnershipTransferred",
      "type": "event"
    },
    {
      "anonymous": false,
      "inputs": [
        {
          "indexed": true,
          "internalType": "address",
          "name": "from",
          "type": "address"
        },
        {
          "indexed": true,
          "internalType": "address",
          "name": "to",
          "type": "address"
        },
        {
          "indexed": true,
          "internalType": "uint256",
          "name": "tokenId",
          "type": "uint256"
        }
      ],
      "name": "Transfer",
      "type": "event"
    },
    {
      "inputs": [
        {
          "internalType": "address",
          "name": "to",
          "type": "address"
        },
        {
          "internalType": "uint256",
          "name": "tokenId",
          "type": "uint256"
        }
      ],
      "name": "approve",
      "outputs": [],
      "stateMutability": "nonpayable",
      "type": "function"
    },
    {
      "inputs": [
        {
          "internalType": "address",
          "name": "owner",
          "type": "address"
        }
      ],
      "name": "balanceOf",
      "outputs": [
        {
          "internalType": "uint256",
          "name": "",
          "type": "uint256"
        }
      ],
      "stateMutability": "view",
      "type": "function"
    },
    {
      "inputs": [
        {
          "internalType": "uint256",
          "name": "tokenID",
          "type": "uint256"
        }
      ],
      "name": "buyNFT",
      "outputs": [],
      "stateMutability": "payable",
      "type": "function"
    },
    {
      "inputs": [
        {
          "internalType": "uint256",
          "name": "tokenID",
          "type": "uint256"
        }
      ],
      "name": "cancelListing",
      "outputs": [],
      "stateMutability": "nonpayable",
      "type": "function"
    },
    {
      "inputs": [
        {
          "internalType": "string",
          "name": "tokenURI",
          "type": "string"
        }
      ],
      "name": "createNFT",
      "outputs": [],
      "stateMutability": "nonpayable",
      "type": "function"
    },
    {
      "inputs": [
        {
          "internalType": "uint256",
          "name": "tokenId",
          "type": "uint256"
        }
      ],
      "name": "getApproved",
      "outputs": [
        {
          "internalType": "address",
          "name": "",
          "type": "address"
        }
      ],
      "stateMutability": "view",
      "type": "function"
    },
    {
      "inputs": [
        {
          "internalType": "address",
          "name": "owner",
          "type": "address"
        },
        {
          "internalType": "address",
          "name": "operator",
          "type": "address"
        }
      ],
      "name": "isApprovedForAll",
      "outputs": [
        {
          "internalType": "bool",
          "name": "",
          "type": "bool"
        }
      ],
      "stateMutability": "view",
      "type": "function"
    },
    {
      "inputs": [
        {
          "internalType": "uint256",
          "name": "tokenID",
          "type": "uint256"
        },
        {
          "internalType": "uint256",
          "name": "price",
          "type": "uint256"
        }
      ],
      "name": "listNFT",
      "outputs": [],
      "stateMutability": "nonpayable",
      "type": "function"
    },
    {
      "inputs": [],
      "name": "name",
      "outputs": [
        {
          "internalType": "string",
          "name": "",
          "type": "string"
        }
      ],
      "stateMutability": "view",
      "type": "function"
    },
    {
      "inputs": [],
      "name": "owner",
      "outputs": [
        {
          "internalType": "address",
          "name": "",
          "type": "address"
        }
      ],
      "stateMutability": "view",
      "type": "function"
    },
    {
      "inputs": [
        {
          "internalType": "uint256",
          "name": "tokenId",
          "type": "uint256"
        }
      ],
      "name": "ownerOf",
      "outputs": [
        {
          "internalType": "address",
          "name": "",
          "type": "address"
        }
      ],
      "stateMutability": "view",
      "type": "function"
    },
    {
      "inputs": [],
      "name": "renounceOwnership",
      "outputs": [],
      "stateMutability": "nonpayable",
      "type": "function"
    },
    {
      "inputs": [
        {
          "internalType": "address",
          "name": "from",
          "type": "address"
        },
        {
          "internalType": "address",
          "name": "to",
          "type": "address"
        },
        {
          "internalType": "uint256",
          "name": "tokenId",
          "type": "uint256"
        }
      ],
      "name": "safeTransferFrom",
      "outputs": [],
      "stateMutability": "nonpayable",
      "type": "function"
    },
    {
      "inputs": [
        {
          "internalType": "address",
          "name": "from",
          "type": "address"
        },
        {
          "internalType": "address",
          "name": "to",
          "type": "address"
        },
        {
          "internalType": "uint256",
          "name": "tokenId",
          "type": "uint256"
        },
        {
          "internalType": "bytes",
          "name": "data",
          "type": "bytes"
        }
      ],
      "name": "safeTransferFrom",
      "outputs": [],
      "stateMutability": "nonpayable",
      "type": "function"
    },
    {
      "inputs": [
        {
          "internalType": "address",
          "name": "operator",
          "type": "address"
        },
        {
          "internalType": "bool",
          "name": "approved",
          "type": "bool"
        }
      ],
      "name": "setApprovalForAll",
      "outputs": [],
      "stateMutability": "nonpayable",
      "type": "function"
    },
    {
      "inputs": [
        {
          "internalType": "bytes4",
          "name": "interfaceId",
          "type": "bytes4"
        }
      ],
      "name": "supportsInterface",
      "outputs": [
        {
          "internalType": "bool",
          "name": "",
          "type": "bool"
        }
      ],
      "stateMutability": "view",
      "type": "function"
    },
    {
      "inputs": [],
      "name": "symbol",
      "outputs": [
        {
          "internalType": "string",
          "name": "",
          "type": "string"
        }
      ],
      "stateMutability": "view",
      "type": "function"
    },
    {
      "inputs": [
        {
          "internalType": "uint256",
          "name": "tokenId",
          "type": "uint256"
        }
      ],
      "name": "tokenURI",
      "outputs": [
        {
          "internalType": "string",
          "name": "",
          "type": "string"
        }
      ],
      "stateMutability": "view",
      "type": "function"
    },
    {
      "inputs": [
        {
          "internalType": "address",
          "name": "from",
          "type": "address"
        },
        {
          "internalType": "address",
          "name": "to",
          "type": "address"
        },
        {
          "internalType": "uint256",
          "name": "tokenId",
          "type": "uint256"
        }
      ],
      "name": "transferFrom",
      "outputs": [],
      "stateMutability": "nonpayable",
      "type": "function"
    },
    {
      "inputs": [
        {
          "internalType": "address",
          "name": "newOwner",
          "type": "address"
        }
      ],
      "name": "transferOwnership",
      "outputs": [],
      "stateMutability": "nonpayable",
      "type": "function"
    },
    {
      "inputs": [],
      "name": "withdrawFunds",
      "outputs": [],
      "stateMutability": "nonpayable",
      "type": "function"
    }
  ],
  "bytecode": "0x6080604052600060085534801561001557600080fd5b506040516136ae3803806136ae83398181016040528101906100379190610277565b806040518060400160405280600681526020017f4b697474656e00000000000000000000000000000000000000000000000000008152506040518060400160405280600381526020017f434154000000000000000000000000000000000000000000000000000000000081525081600090816100b391906104f4565b5080600190816100c391906104f4565b505050600073ffffffffffffffffffffffffffffffffffffffff168173ffffffffffffffffffffffffffffffffffffffff16036101385760006040517f1e4fbdf700000000000000000000000000000000000000000000000000000000815260040161012f91906105d5565b60405180910390fd5b6101478161014e60201b60201c565b50506105f0565b6000600760009054906101000a900473ffffffffffffffffffffffffffffffffffffffff16905081600760006101000a81548173ffffffffffffffffffffffffffffffffffffffff021916908373ffffffffffffffffffffffffffffffffffffffff1602179055508173ffffffffffffffffffffffffffffffffffffffff168173ffffffffffffffffffffffffffffffffffffffff167f8be0079c531659141344cd1fd0a4f28419497f9722a3daafe3b4186f6b6457e060405160405180910390a35050565b600080fd5b600073ffffffffffffffffffffffffffffffffffffffff82169050919050565b600061024482610219565b9050919050565b61025481610239565b811461025f57600080fd5b50565b6000815190506102718161024b565b92915050565b60006020828403121561028d5761028c610214565b5b600061029b84828501610262565b91505092915050565b600081519050919050565b7f4e487b7100000000000000000000000000000000000000000000000000000000600052604160045260246000fd5b7f4e487b7100000000000000000000000000000000000000000000000000000000600052602260045260246000fd5b6000600282049050600182168061032557607f821691505b602082108103610338576103376102de565b5b50919050565b60008190508160005260206000209050919050565b60006020601f8301049050919050565b600082821b905092915050565b6000600883026103a07fffffffffffffffffffffffffffffffffffffffffffffffffffffffffffffffff82610363565b6103aa8683610363565b95508019841693508086168417925050509392505050565b6000819050919050565b6000819050919050565b60006103f16103ec6103e7846103c2565b6103cc565b6103c2565b9050919050565b6000819050919050565b61040b836103d6565b61041f610417826103f8565b848454610370565b825550505050565b600090565b610434610427565b61043f818484610402565b505050565b5b818110156104635761045860008261042c565b600181019050610445565b5050565b601f8211156104a8576104798161033e565b61048284610353565b81016020851015610491578190505b6104a561049d85610353565b830182610444565b50505b505050565b600082821c905092915050565b60006104cb600019846008026104ad565b1980831691505092915050565b60006104e483836104ba565b9150826002028217905092915050565b6104fd826102a4565b67ffffffffffffffff811115610516576105156102af565b5b610520825461030d565b61052b828285610467565b600060209050601f83116001811461055e576000841561054c578287015190505b61055685826104d8565b8655506105be565b601f19841661056c8661033e565b60005b828110156105945784890151825560018201915060208501945060208101905061056f565b868310156105b157848901516105ad601f8916826104ba565b8355505b6001600288020188555050505b505050505050565b6105cf81610239565b82525050565b60006020820190506105ea60008301846105c6565b92915050565b6130af806105ff6000396000f3fe60806040526004361061012a5760003560e01c806370a08231116100ab578063a22cb4651161006f578063a22cb465146103bb578063b88d4fde146103e4578063c87b56dd1461040d578063da2ed03e1461044a578063e985e9c514610473578063f2fde38b146104b05761012a565b806370a08231146102e8578063715018a6146103255780638da5cb5b1461033c57806394383f141461036757806395d89b41146103905761012a565b806324600fc3116100f257806324600fc314610226578063305a67a81461023d57806342842e0e1461026657806351ed82881461028f5780636352211e146102ab5761012a565b806301ffc9a71461012f57806306fdde031461016c578063081812fc14610197578063095ea7b3146101d457806323b872dd146101fd575b600080fd5b34801561013b57600080fd5b50610156600480360381019061015191906122d3565b6104d9565b604051610163919061231b565b60405180910390f35b34801561017857600080fd5b5061018161053a565b60405161018e91906123c6565b60405180910390f35b3480156101a357600080fd5b506101be60048036038101906101b9919061241e565b6105cc565b6040516101cb919061248c565b60405180910390f35b3480156101e057600080fd5b506101fb60048036038101906101f691906124d3565b6105e8565b005b34801561020957600080fd5b50610224600480360381019061021f9190612513565b6105fe565b005b34801561023257600080fd5b5061023b610700565b005b34801561024957600080fd5b50610264600480360381019061025f919061241e565b610791565b005b34801561027257600080fd5b5061028d60048036038101906102889190612513565b610974565b005b6102a960048036038101906102a4919061241e565b610994565b005b3480156102b757600080fd5b506102d260048036038101906102cd919061241e565b610bb2565b6040516102df919061248c565b60405180910390f35b3480156102f457600080fd5b5061030f600480360381019061030a9190612566565b610bc4565b60405161031c91906125a2565b60405180910390f35b34801561033157600080fd5b5061033a610c7e565b005b34801561034857600080fd5b50610351610c92565b60405161035e919061248c565b60405180910390f35b34801561037357600080fd5b5061038e600480360381019061038991906125bd565b610cbc565b005b34801561039c57600080fd5b506103a5610dd4565b6040516103b291906123c6565b60405180910390f35b3480156103c757600080fd5b506103e260048036038101906103dd9190612629565b610e66565b005b3480156103f057600080fd5b5061040b6004803603810190610406919061279e565b610e7c565b005b34801561041957600080fd5b50610434600480360381019061042f919061241e565b610e99565b60405161044191906123c6565b60405180910390f35b34801561045657600080fd5b50610471600480360381019061046c9190612881565b610fac565b005b34801561047f57600080fd5b5061049a600480360381019061049591906128ce565b611069565b6040516104a7919061231b565b60405180910390f35b3480156104bc57600080fd5b506104d760048036038101906104d29190612566565b6110fd565b005b6000634906490660e01b7bffffffffffffffffffffffffffffffffffffffffffffffffffffffff1916827bffffffffffffffffffffffffffffffffffffffffffffffffffffffff19161480610533575061053282611183565b5b9050919050565b6060600080546105499061293d565b80601f01602080910402602001604051908101604052809291908181526020018280546105759061293d565b80156105c25780601f10610597576101008083540402835291602001916105c2565b820191906000526020600020905b8154815290600101906020018083116105a557829003601f168201915b5050505050905090565b60006105d782611265565b506105e1826112ed565b9050919050565b6105fa82826105f561132a565b611332565b5050565b600073ffffffffffffffffffffffffffffffffffffffff168273ffffffffffffffffffffffffffffffffffffffff16036106705760006040517f64a0ae92000000000000000000000000000000000000000000000000000000008152600401610667919061248c565b60405180910390fd5b6000610684838361067f61132a565b611344565b90508373ffffffffffffffffffffffffffffffffffffffff168173ffffffffffffffffffffffffffffffffffffffff16146106fa578382826040517f64283d7b0000000000000000000000000000000000000000000000000000000081526004016106f19392919061296e565b60405180910390fd5b50505050565b61070861155e565b600047905060008111610747576040517fed80db5700000000000000000000000000000000000000000000000000000000815260040160405180910390fd5b3373ffffffffffffffffffffffffffffffffffffffff166108fc829081150290604051600060405180830381858888f1935050505015801561078d573d6000803e3d6000fd5b5050565b600060096000838152602001908152602001600020604051806040016040529081600082015481526020016001820160009054906101000a900473ffffffffffffffffffffffffffffffffffffffff1673ffffffffffffffffffffffffffffffffffffffff1673ffffffffffffffffffffffffffffffffffffffff168152505090506000816000015111610851576040517f038ceae400000000000000000000000000000000000000000000000000000000815260040160405180910390fd5b3373ffffffffffffffffffffffffffffffffffffffff16816020015173ffffffffffffffffffffffffffffffffffffffff16146108ba576040517f085ab3cd00000000000000000000000000000000000000000000000000000000815260040160405180910390fd5b3073ffffffffffffffffffffffffffffffffffffffff166323b872dd3033856040518463ffffffff1660e01b81526004016108f7939291906129a5565b600060405180830381600087803b15801561091157600080fd5b505af1158015610925573d6000803e3d6000fd5b50505050610932826115e5565b7f705332a8918666802fc1504f63ff1f002a5f6cedd30d59ad7ae0b5281aeb8dca82303360006040516109689493929190612a47565b60405180910390a15050565b61098f83838360405180602001604052806000815250610e7c565b505050565b600060096000838152602001908152602001600020604051806040016040529081600082015481526020016001820160009054906101000a900473ffffffffffffffffffffffffffffffffffffffff1673ffffffffffffffffffffffffffffffffffffffff1673ffffffffffffffffffffffffffffffffffffffff168152505090506000816000015111610a54576040517f038ceae400000000000000000000000000000000000000000000000000000000815260040160405180910390fd5b80600001513414610a91576040517f43ab552300000000000000000000000000000000000000000000000000000000815260040160405180910390fd5b3073ffffffffffffffffffffffffffffffffffffffff166323b872dd3033856040518463ffffffff1660e01b8152600401610ace939291906129a5565b600060405180830381600087803b158015610ae857600080fd5b505af1158015610afc573d6000803e3d6000fd5b50505050610b09826115e5565b806020015173ffffffffffffffffffffffffffffffffffffffff166108fc6064605f8460000151610b3a9190612ace565b610b449190612b3f565b9081150290604051600060405180830381858888f19350505050158015610b6f573d6000803e3d6000fd5b507f705332a8918666802fc1504f63ff1f002a5f6cedd30d59ad7ae0b5281aeb8dca8230336000604051610ba69493929190612a47565b60405180910390a15050565b6000610bbd82611265565b9050919050565b60008073ffffffffffffffffffffffffffffffffffffffff168273ffffffffffffffffffffffffffffffffffffffff1603610c375760006040517f89c62b64000000000000000000000000000000000000000000000000000000008152600401610c2e919061248c565b60405180910390fd5b600360008373ffffffffffffffffffffffffffffffffffffffff1673ffffffffffffffffffffffffffffffffffffffff168152602001908152602001600020549050919050565b610c8661155e565b610c90600061165a565b565b6000600760009054906101000a900473ffffffffffffffffffffffffffffffffffffffff16905090565b60008111610cf6576040517f5108b18a00000000000000000000000000000000000000000000000000000000815260040160405180910390fd5b610d013330846105fe565b60405180604001604052808281526020013373ffffffffffffffffffffffffffffffffffffffff16815250600960008481526020019081526020016000206000820151816000015560208201518160010160006101000a81548173ffffffffffffffffffffffffffffffffffffffff021916908373ffffffffffffffffffffffffffffffffffffffff1602179055509050507f705332a8918666802fc1504f63ff1f002a5f6cedd30d59ad7ae0b5281aeb8dca82333084604051610dc89493929190612b70565b60405180910390a15050565b606060018054610de39061293d565b80601f0160208091040260200160405190810160405280929190818152602001828054610e0f9061293d565b8015610e5c5780601f10610e3157610100808354040283529160200191610e5c565b820191906000526020600020905b815481529060010190602001808311610e3f57829003601f168201915b5050505050905090565b610e78610e7161132a565b8383611720565b5050565b610e878484846105fe565b610e938484848461188f565b50505050565b6060610ea482611265565b506000600660008481526020019081526020016000208054610ec59061293d565b80601f0160208091040260200160405190810160405280929190818152602001828054610ef19061293d565b8015610f3e5780601f10610f1357610100808354040283529160200191610f3e565b820191906000526020600020905b815481529060010190602001808311610f2157829003601f168201915b505050505090506000610f4f611a46565b90506000815103610f64578192505050610fa7565b600082511115610f99578082604051602001610f81929190612c04565b60405160208183030381529060405292505050610fa7565b610fa284611a5d565b925050505b919050565b60086000815480929190610fbf90612c28565b9190505550610fd033600854611ac6565b61102060085483838080601f016020809104026020016040519081016040528093929190818152602001838380828437600081840152601f19601f82011690508083019250505050505050611ae4565b7f705332a8918666802fc1504f63ff1f002a5f6cedd30d59ad7ae0b5281aeb8dca6008546000338585600060405161105d96959493929190612c9d565b60405180910390a15050565b6000600560008473ffffffffffffffffffffffffffffffffffffffff1673ffffffffffffffffffffffffffffffffffffffff16815260200190815260200160002060008373ffffffffffffffffffffffffffffffffffffffff1673ffffffffffffffffffffffffffffffffffffffff16815260200190815260200160002060009054906101000a900460ff16905092915050565b61110561155e565b600073ffffffffffffffffffffffffffffffffffffffff168173ffffffffffffffffffffffffffffffffffffffff16036111775760006040517f1e4fbdf700000000000000000000000000000000000000000000000000000000815260040161116e919061248c565b60405180910390fd5b6111808161165a565b50565b60007f80ac58cd000000000000000000000000000000000000000000000000000000007bffffffffffffffffffffffffffffffffffffffffffffffffffffffff1916827bffffffffffffffffffffffffffffffffffffffffffffffffffffffff1916148061124e57507f5b5e139f000000000000000000000000000000000000000000000000000000007bffffffffffffffffffffffffffffffffffffffffffffffffffffffff1916827bffffffffffffffffffffffffffffffffffffffffffffffffffffffff1916145b8061125e575061125d82611b40565b5b9050919050565b60008061127183611baa565b9050600073ffffffffffffffffffffffffffffffffffffffff168173ffffffffffffffffffffffffffffffffffffffff16036112e457826040517f7e2732890000000000000000000000000000000000000000000000000000000081526004016112db91906125a2565b60405180910390fd5b80915050919050565b60006004600083815260200190815260200160002060009054906101000a900473ffffffffffffffffffffffffffffffffffffffff169050919050565b600033905090565b61133f8383836001611be7565b505050565b60008061135084611baa565b9050600073ffffffffffffffffffffffffffffffffffffffff168373ffffffffffffffffffffffffffffffffffffffff161461139257611391818486611dac565b5b600073ffffffffffffffffffffffffffffffffffffffff168173ffffffffffffffffffffffffffffffffffffffff1614611423576113d4600085600080611be7565b6001600360008373ffffffffffffffffffffffffffffffffffffffff1673ffffffffffffffffffffffffffffffffffffffff168152602001908152602001600020600082825403925050819055505b600073ffffffffffffffffffffffffffffffffffffffff168573ffffffffffffffffffffffffffffffffffffffff16146114a6576001600360008773ffffffffffffffffffffffffffffffffffffffff1673ffffffffffffffffffffffffffffffffffffffff168152602001908152602001600020600082825401925050819055505b846002600086815260200190815260200160002060006101000a81548173ffffffffffffffffffffffffffffffffffffffff021916908373ffffffffffffffffffffffffffffffffffffffff160217905550838573ffffffffffffffffffffffffffffffffffffffff168273ffffffffffffffffffffffffffffffffffffffff167fddf252ad1be2c89b69c2b068fc378daa952ba7f163c4a11628f55a4df523b3ef60405160405180910390a4809150509392505050565b61156661132a565b73ffffffffffffffffffffffffffffffffffffffff16611584610c92565b73ffffffffffffffffffffffffffffffffffffffff16146115e3576115a761132a565b6040517f118cdaa70000000000000000000000000000000000000000000000000000000081526004016115da919061248c565b60405180910390fd5b565b6000600960008381526020019081526020016000206000018190555060006009600083815260200190815260200160002060010160006101000a81548173ffffffffffffffffffffffffffffffffffffffff021916908373ffffffffffffffffffffffffffffffffffffffff16021790555050565b6000600760009054906101000a900473ffffffffffffffffffffffffffffffffffffffff16905081600760006101000a81548173ffffffffffffffffffffffffffffffffffffffff021916908373ffffffffffffffffffffffffffffffffffffffff1602179055508173ffffffffffffffffffffffffffffffffffffffff168173ffffffffffffffffffffffffffffffffffffffff167f8be0079c531659141344cd1fd0a4f28419497f9722a3daafe3b4186f6b6457e060405160405180910390a35050565b600073ffffffffffffffffffffffffffffffffffffffff168273ffffffffffffffffffffffffffffffffffffffff160361179157816040517f5b08ba18000000000000000000000000000000000000000000000000000000008152600401611788919061248c565b60405180910390fd5b80600560008573ffffffffffffffffffffffffffffffffffffffff1673ffffffffffffffffffffffffffffffffffffffff16815260200190815260200160002060008473ffffffffffffffffffffffffffffffffffffffff1673ffffffffffffffffffffffffffffffffffffffff16815260200190815260200160002060006101000a81548160ff0219169083151502179055508173ffffffffffffffffffffffffffffffffffffffff168373ffffffffffffffffffffffffffffffffffffffff167f17307eab39ab6107e8899845ad3d59bd9653f200f220920489ca2b5937696c3183604051611882919061231b565b60405180910390a3505050565b60008373ffffffffffffffffffffffffffffffffffffffff163b1115611a40578273ffffffffffffffffffffffffffffffffffffffff1663150b7a026118d361132a565b8685856040518563ffffffff1660e01b81526004016118f59493929190612d4e565b6020604051808303816000875af192505050801561193157506040513d601f19601f8201168201806040525081019061192e9190612daf565b60015b6119b5573d8060008114611961576040519150601f19603f3d011682016040523d82523d6000602084013e611966565b606091505b5060008151036119ad57836040517f64a0ae920000000000000000000000000000000000000000000000000000000081526004016119a4919061248c565b60405180910390fd5b805181602001fd5b63150b7a0260e01b7bffffffffffffffffffffffffffffffffffffffffffffffffffffffff1916817bffffffffffffffffffffffffffffffffffffffffffffffffffffffff191614611a3e57836040517f64a0ae92000000000000000000000000000000000000000000000000000000008152600401611a35919061248c565b60405180910390fd5b505b50505050565b606060405180602001604052806000815250905090565b6060611a6882611265565b506000611a73611a46565b90506000815111611a935760405180602001604052806000815250611abe565b80611a9d84611e70565b604051602001611aae929190612c04565b6040516020818303038152906040525b915050919050565b611ae0828260405180602001604052806000815250611f3e565b5050565b80600660008481526020019081526020016000209081611b049190612f7e565b507ff8e1a15aba9398e019f0b49df1a4fde98ee17ae345cb5f6b5e2c27f5033e8ce782604051611b3491906125a2565b60405180910390a15050565b60007f01ffc9a7000000000000000000000000000000000000000000000000000000007bffffffffffffffffffffffffffffffffffffffffffffffffffffffff1916827bffffffffffffffffffffffffffffffffffffffffffffffffffffffff1916149050919050565b60006002600083815260200190815260200160002060009054906101000a900473ffffffffffffffffffffffffffffffffffffffff169050919050565b8080611c205750600073ffffffffffffffffffffffffffffffffffffffff168273ffffffffffffffffffffffffffffffffffffffff1614155b15611d54576000611c3084611265565b9050600073ffffffffffffffffffffffffffffffffffffffff168373ffffffffffffffffffffffffffffffffffffffff1614158015611c9b57508273ffffffffffffffffffffffffffffffffffffffff168173ffffffffffffffffffffffffffffffffffffffff1614155b8015611cae5750611cac8184611069565b155b15611cf057826040517fa9fbf51f000000000000000000000000000000000000000000000000000000008152600401611ce7919061248c565b60405180910390fd5b8115611d5257838573ffffffffffffffffffffffffffffffffffffffff168273ffffffffffffffffffffffffffffffffffffffff167f8c5be1e5ebec7d5bd14f71427d1e84f3dd0314c0f7b2291e5b200ac8c7c3b92560405160405180910390a45b505b836004600085815260200190815260200160002060006101000a81548173ffffffffffffffffffffffffffffffffffffffff021916908373ffffffffffffffffffffffffffffffffffffffff16021790555050505050565b611db7838383611f5a565b611e6b57600073ffffffffffffffffffffffffffffffffffffffff168373ffffffffffffffffffffffffffffffffffffffff1603611e2c57806040517f7e273289000000000000000000000000000000000000000000000000000000008152600401611e2391906125a2565b60405180910390fd5b81816040517f177e802f000000000000000000000000000000000000000000000000000000008152600401611e62929190613050565b60405180910390fd5b505050565b606060006001611e7f8461201b565b01905060008167ffffffffffffffff811115611e9e57611e9d612673565b5b6040519080825280601f01601f191660200182016040528015611ed05781602001600182028036833780820191505090505b509050600082602001820190505b600115611f33578080600190039150507f3031323334353637383961626364656600000000000000000000000000000000600a86061a8153600a8581611f2757611f26612b10565b5b04945060008503611ede575b819350505050919050565b611f48838361216e565b611f55600084848461188f565b505050565b60008073ffffffffffffffffffffffffffffffffffffffff168373ffffffffffffffffffffffffffffffffffffffff161415801561201257508273ffffffffffffffffffffffffffffffffffffffff168473ffffffffffffffffffffffffffffffffffffffff161480611fd35750611fd28484611069565b5b8061201157508273ffffffffffffffffffffffffffffffffffffffff16611ff9836112ed565b73ffffffffffffffffffffffffffffffffffffffff16145b5b90509392505050565b600080600090507a184f03e93ff9f4daa797ed6e38ed64bf6a1f0100000000000000008310612079577a184f03e93ff9f4daa797ed6e38ed64bf6a1f010000000000000000838161206f5761206e612b10565b5b0492506040810190505b6d04ee2d6d415b85acef810000000083106120b6576d04ee2d6d415b85acef810000000083816120ac576120ab612b10565b5b0492506020810190505b662386f26fc1000083106120e557662386f26fc1000083816120db576120da612b10565b5b0492506010810190505b6305f5e100831061210e576305f5e100838161210457612103612b10565b5b0492506008810190505b612710831061213357612710838161212957612128612b10565b5b0492506004810190505b60648310612156576064838161214c5761214b612b10565b5b0492506002810190505b600a8310612165576001810190505b80915050919050565b600073ffffffffffffffffffffffffffffffffffffffff168273ffffffffffffffffffffffffffffffffffffffff16036121e05760006040517f64a0ae920000000000000000000000000000000000000000000000000000000081526004016121d7919061248c565b60405180910390fd5b60006121ee83836000611344565b9050600073ffffffffffffffffffffffffffffffffffffffff168173ffffffffffffffffffffffffffffffffffffffff16146122625760006040517f73c6ac6e000000000000000000000000000000000000000000000000000000008152600401612259919061248c565b60405180910390fd5b505050565b6000604051905090565b600080fd5b600080fd5b60007fffffffff0000000000000000000000000000000000000000000000000000000082169050919050565b6122b08161227b565b81146122bb57600080fd5b50565b6000813590506122cd816122a7565b92915050565b6000602082840312156122e9576122e8612271565b5b60006122f7848285016122be565b91505092915050565b60008115159050919050565b61231581612300565b82525050565b6000602082019050612330600083018461230c565b92915050565b600081519050919050565b600082825260208201905092915050565b60005b83811015612370578082015181840152602081019050612355565b60008484015250505050565b6000601f19601f8301169050919050565b600061239882612336565b6123a28185612341565b93506123b2818560208601612352565b6123bb8161237c565b840191505092915050565b600060208201905081810360008301526123e0818461238d565b905092915050565b6000819050919050565b6123fb816123e8565b811461240657600080fd5b50565b600081359050612418816123f2565b92915050565b60006020828403121561243457612433612271565b5b600061244284828501612409565b91505092915050565b600073ffffffffffffffffffffffffffffffffffffffff82169050919050565b60006124768261244b565b9050919050565b6124868161246b565b82525050565b60006020820190506124a1600083018461247d565b92915050565b6124b08161246b565b81146124bb57600080fd5b50565b6000813590506124cd816124a7565b92915050565b600080604083850312156124ea576124e9612271565b5b60006124f8858286016124be565b925050602061250985828601612409565b9150509250929050565b60008060006060848603121561252c5761252b612271565b5b600061253a868287016124be565b935050602061254b868287016124be565b925050604061255c86828701612409565b9150509250925092565b60006020828403121561257c5761257b612271565b5b600061258a848285016124be565b91505092915050565b61259c816123e8565b82525050565b60006020820190506125b76000830184612593565b92915050565b600080604083850312156125d4576125d3612271565b5b60006125e285828601612409565b92505060206125f385828601612409565b9150509250929050565b61260681612300565b811461261157600080fd5b50565b600081359050612623816125fd565b92915050565b600080604083850312156126405761263f612271565b5b600061264e858286016124be565b925050602061265f85828601612614565b9150509250929050565b600080fd5b600080fd5b7f4e487b7100000000000000000000000000000000000000000000000000000000600052604160045260246000fd5b6126ab8261237c565b810181811067ffffffffffffffff821117156126ca576126c9612673565b5b80604052505050565b60006126dd612267565b90506126e982826126a2565b919050565b600067ffffffffffffffff82111561270957612708612673565b5b6127128261237c565b9050602081019050919050565b82818337600083830152505050565b600061274161273c846126ee565b6126d3565b90508281526020810184848401111561275d5761275c61266e565b5b61276884828561271f565b509392505050565b600082601f83011261278557612784612669565b5b813561279584826020860161272e565b91505092915050565b600080600080608085870312156127b8576127b7612271565b5b60006127c6878288016124be565b94505060206127d7878288016124be565b93505060406127e887828801612409565b925050606085013567ffffffffffffffff81111561280957612808612276565b5b61281587828801612770565b91505092959194509250565b600080fd5b600080fd5b60008083601f84011261284157612840612669565b5b8235905067ffffffffffffffff81111561285e5761285d612821565b5b60208301915083600182028301111561287a57612879612826565b5b9250929050565b6000806020838503121561289857612897612271565b5b600083013567ffffffffffffffff8111156128b6576128b5612276565b5b6128c28582860161282b565b92509250509250929050565b600080604083850312156128e5576128e4612271565b5b60006128f3858286016124be565b9250506020612904858286016124be565b9150509250929050565b7f4e487b7100000000000000000000000000000000000000000000000000000000600052602260045260246000fd5b6000600282049050600182168061295557607f821691505b6020821081036129685761296761290e565b5b50919050565b6000606082019050612983600083018661247d565b6129906020830185612593565b61299d604083018461247d565b949350505050565b60006060820190506129ba600083018661247d565b6129c7602083018561247d565b6129d46040830184612593565b949350505050565b50565b60006129ec600083612341565b91506129f7826129dc565b600082019050919050565b6000819050919050565b6000819050919050565b6000612a31612a2c612a2784612a02565b612a0c565b6123e8565b9050919050565b612a4181612a16565b82525050565b600060a082019050612a5c6000830187612593565b612a69602083018661247d565b612a76604083018561247d565b8181036060830152612a87816129df565b9050612a966080830184612a38565b95945050505050565b7f4e487b7100000000000000000000000000000000000000000000000000000000600052601160045260246000fd5b6000612ad9826123e8565b9150612ae4836123e8565b9250828202612af2816123e8565b91508282048414831517612b0957612b08612a9f565b5b5092915050565b7f4e487b7100000000000000000000000000000000000000000000000000000000600052601260045260246000fd5b6000612b4a826123e8565b9150612b55836123e8565b925082612b6557612b64612b10565b5b828204905092915050565b600060a082019050612b856000830187612593565b612b92602083018661247d565b612b9f604083018561247d565b8181036060830152612bb0816129df565b9050612bbf6080830184612593565b95945050505050565b600081905092915050565b6000612bde82612336565b612be88185612bc8565b9350612bf8818560208601612352565b80840191505092915050565b6000612c108285612bd3565b9150612c1c8284612bd3565b91508190509392505050565b6000612c33826123e8565b91507fffffffffffffffffffffffffffffffffffffffffffffffffffffffffffffffff8203612c6557612c64612a9f565b5b600182019050919050565b6000612c7c8385612341565b9350612c8983858461271f565b612c928361237c565b840190509392505050565b600060a082019050612cb26000830189612593565b612cbf602083018861247d565b612ccc604083018761247d565b8181036060830152612cdf818587612c70565b9050612cee6080830184612a38565b979650505050505050565b600081519050919050565b600082825260208201905092915050565b6000612d2082612cf9565b612d2a8185612d04565b9350612d3a818560208601612352565b612d438161237c565b840191505092915050565b6000608082019050612d63600083018761247d565b612d70602083018661247d565b612d7d6040830185612593565b8181036060830152612d8f8184612d15565b905095945050505050565b600081519050612da9816122a7565b92915050565b600060208284031215612dc557612dc4612271565b5b6000612dd384828501612d9a565b91505092915050565b60008190508160005260206000209050919050565b60006020601f8301049050919050565b600082821b905092915050565b600060088302612e3e7fffffffffffffffffffffffffffffffffffffffffffffffffffffffffffffffff82612e01565b612e488683612e01565b95508019841693508086168417925050509392505050565b6000612e7b612e76612e71846123e8565b612a0c565b6123e8565b9050919050565b6000819050919050565b612e9583612e60565b612ea9612ea182612e82565b848454612e0e565b825550505050565b600090565b612ebe612eb1565b612ec9818484612e8c565b505050565b5b81811015612eed57612ee2600082612eb6565b600181019050612ecf565b5050565b601f821115612f3257612f0381612ddc565b612f0c84612df1565b81016020851015612f1b578190505b612f2f612f2785612df1565b830182612ece565b50505b505050565b600082821c905092915050565b6000612f5560001984600802612f37565b1980831691505092915050565b6000612f6e8383612f44565b9150826002028217905092915050565b612f8782612336565b67ffffffffffffffff811115612fa057612f9f612673565b5b612faa825461293d565b612fb5828285612ef1565b600060209050601f831160018114612fe85760008415612fd6578287015190505b612fe08582612f62565b865550613048565b601f198416612ff686612ddc565b60005b8281101561301e57848901518255600182019150602085019450602081019050612ff9565b8683101561303b5784890151613037601f891682612f44565b8355505b6001600288020188555050505b505050505050565b6000604082019050613065600083018561247d565b6130726020830184612593565b939250505056fea2646970667358221220ddfc845d831434ed92402cce42f67e9f82da86e6167d8343958b55499334cbcc64736f6c634300081b0033",
  "linkReferences": {},
  "deployedLinkReferences": {}
}